:020000040800F2
:1000000020100020C1160008BB070008BD0700082B
:10001000C1070008C5070008C90700080000000064
:10002000000000000000000000000000CD070008F4
:10003000CF07000800000000D1070008D307000820
:10004000DB160008DB160008DB160008DB160008CC
:10005000DB160008DB160008DB160008DB160008BC
:10006000DB160008DB160008DB160008DB160008AC
:10007000DB160008DB160008DB160008DB1600089C
:10008000DB160008DB160008DB160008DB1600088C
:10009000DB160008DB160008DB160008DB1600087C
:1000A000DB160008DB160008DB160008DB1600086C
:1000B000DB160008DB160008DB160008DB1600085C
:1000C000DB160008DB160008DB160008DB1600084C
:1000D000DB160008B3370008DB160008DB16000843
:1000E000DB160008DB160008DB160008DB1600082C
:1000F000DB160008DB160008DB160008DB1600081C
:10010000DB160008DB160008DB160008DB1600080B
:10011000DB160008DB160008DB160008DB160008FB
:10012000DB160008DB160008DB160008DB160008EB
:1001300000F002F800F0B4F80AA090E8000C824445
:100140008344AAF10107DA4501D100F0A9F8AFF222
:10015000090EBAE80F0013F0010F18BFFB1A43F0A5
:1001600001031847D8B20000F8B200000A444FF06B
:10017000000C10F8013B13F0070408BF10F8014B06
:100180001D1108BF10F8015B641E05D010F8016B4B
:10019000641E01F8016BF9D113F0080F1EBF10F8AF
:1001A000014BAD1C0C1B09D16D1E58BF01F801CBD2
:1001B000FAD505E014F8016B01F8016B6D1EF9D555
:1001C0009142D6D37047000000230024002500266A
:1001D000103A28BF78C1FBD8520728BF30C148BFAA
:1001E0000B6070476E2907F0B684702907F04181D3
:1001F00066290AF00E8465290AF00B8467290AF043
:10020000088461290AF0078403681B0A28BF41F0AB
:100210008001692907F0B280642907F0AF80752951
:1002200007F0AC806F2907F0B287782907F00D81BD
:10023000E92907F04D87E42907F04A87F52907F0F7
:100240004787EF2907F0AF87F82907F00C8103688B
:10025000DB0928BF41F08001632907F0CE867329AE
:1002600007F0D386E32908F0E984F32908F0EE8447
:10027000002070471FB59DE8030007F0CBFB08F096
:10028000A5FA04000020002109F054FF401C606022
:100290000020002109F064FFE0601FBD10B510BD13
:1002A00008F02CFF1146FFF7E5FF00F091F909F087
:1002B0007FF903B4FFF7F2FF03BC09F0AFF90000C8
:1002C00008B5F848007810B101285ED131E002236A
:1002D00000220621102000F0FAFD02231722062139
:1002E000302000F0F4FD102002230090EE48028838
:1002F0000621502000F053FD012312220621602028
:1003000000F0E5FD01231B220621702000F0DFFD37
:10031000E648007830B901231A220621002000F0B7
:10032000D6FD05E001231C220621002000F0CFFDB0
:100330005DE0022303220621102000F0C8FD022305
:1003400017220621302000F0C2FD10200223009069
:10035000D74802880621502000F021FD1023D5A2A5
:100360000621602000F05FFDD448007830B90123F9
:100370001A220621002000F0AAFD05E001231C221C
:100380000621002000F0A3FD31E0012306221146E2
:10039000102000F09CFD012308220621202000F0FF
:1003A00096FD022317220621302000F090FD102038
:1003B00004230090C24802880621502000F0EFFC80
:1003C0001023C0A20621702000F02DFDBE48007849
:1003D00030B901231A220621002000F078FD05E043
:1003E00001231C220621002000F071FD00BF00BF88
:1003F00008BD1CB5B5480078C8B1B548008832289A
:1004000015D10020B14908700120B2490978CDE921
:100410000010B1480378B1480288B1A1BC4806F089
:1004200047FFBB49BBA004F025FA03F091F8A848A8
:100430000088642190FBF1F201FB1200012824D115
:10044000A449A54800F0A5FE102002230090A24870
:1004500002780021302000F0A2FC1020022300903E
:100460009C4802781946302000F099FC01210020B8
:1004700000F035FF994908801020042300900846B9
:1004800002881946482000F08AFC91480088401CE8
:1004900080B28F490880B0F5FA7F12DB0020088017
:1004A0008C48007800908C4803788C4802889DA185
:1004B000974806F0FDFE964996A004F0DBF903F09C
:1004C00047F8012003F09FF89F490860084600683C
:1004D00018B10846006804F0F3F90A2000F0DDFFC7
:1004E0007248007880B97C4800786F490988884252
:1004F00005DB4FF48051954801F07FFA04E04FF49A
:100500008051924801F077FA6C48007880B97148C0
:10051000007867490988884205DB4FF480518B4891
:1005200001F06BFA04E04FF48051884801F063FA5F
:100530006548007880B9694800886149098888421F
:1005400005DB4FF48051814801F057FA04E04FF485
:1005500080517E4801F04FFA1CBD1CB500F058FADE
:100560007B4908707B4800780978884204D0784835
:1005700000787849087002E00020754908707448D6
:100580000078012823D1744890F9000000F0D7FECC
:10059000012050490978CDE900104F4803784F48B1
:1005A00002886EA15A4806F083FE594959A004F00A
:1005B00061F902F0CDFF042303220221002000F0A4
:1005C00086FC032300221146104600F080FC1CBD6F
:1005D00000F090FF00F024FF4FF4E13000F090FFB6
:1005E0004FF4E13000F0DEFF00F0C4FC00F026FA2A
:1005F00000F0E0F900F01AFE00F0F6F900F08AFED3
:1006000009E0142361A20021084600F00CFC4FF41D
:10061000FA7000F042FF00F0E8FD0028F1D103F08D
:1006200019F803E04FF4FA7000F037FF04F088F88F
:100630000028F7D14FF48051444801F0DEF94FF41F
:10064000FA7000F02AFF4FF48051404801F0D3F9CE
:100650000121534804F0E6F800F00BFB01231222BD
:100660000021402000F033FC03231A460221002021
:1006700000F02DFC10234BA20221402000F0D3FB00
:10068000052306220421002000F021FC002211464F
:10069000104600F0EBFB102343A20421682000F079
:1006A000C2FB89E0190400200E040020140400207D
:1006B00010040020255248200000000015040020EE
:1006C000120400206C750000160400200D040020A8
:1006D000040400201B0400201A0400201C04002035
:1006E0007B226C69676874223A25642C2274656DDC
:1006F00070223A25642C2268756D69223A25642C93
:10070000226F6C65645F67617461223A25647D00C5
:10071000300800202F696F742F363237332F636310
:10072000000000007B226C69676874223A25642C03
:100730002274656D70223A25642C2268756D6922D9
:100740003A25647D000000000804002000080140F4
:1007500018040020170400200C0400207B226C6980
:10076000676874223A25642C2274656D70223A25DC
:10077000642C2268756D69223A25642C22646961B3
:100780006E7975616E223A25647D000044485431CB
:100790003120696E6974206572726F7221000000E9
:1007A00000040020255248006C757800FFF7D5FE44
:1007B000FFF71FFEFFF784FDF8E7704700BFFEE775
:1007C00000BFFEE700BFFEE700BFFEE770477047CF
:1007D000704770470CB50020019000906C4800688D
:1007E00040F480306A49086000BF6948006800F43E
:1007F000003000900198401C0190009818B90198B1
:10080000B0F5A06FF1D16248006800F4003010B17B
:100810000120009001E0002000900098012843D1C1
:100820005C48006840F010005A49086008460068BB
:1008300020F0030008600846006840F002000860ED
:100840005348406852494860084640684860084636
:10085000406840F4806048600846406820F47C109E
:1008600048600846406840F4E81048600846006860
:1008700040F08070086000BF4548006800F00070DC
:100880000028F9D04248406820F003004049486001
:100890000846406840F00200486000BF3C4840689D
:1008A00000F00C000828F9D10CBD10B5FFF792FF3D
:1008B00010BD10B53648006840F0010034490860AA
:1008C0000846406834490840314948600846006895
:1008D000324908402E4908600846006820F480200C
:1008E00008600846406820F4FE0048604FF41F008E
:1008F0008860FFF7DAFF4FF000602949086010BDFB
:1009000010B5002100200022214B5B6803F00C0190
:1009100021B1042906D0082928D107E0214B224C17
:10092000236027E01F4B204C236023E0184B5B68BB
:1009300003F47010164B5B6803F48032022303EB60
:10094000904022B9194B4343174C23600DE0104BE4
:100950005B6803F4003323B1144B4343124C236010
:1009600003E0104B4343104C236003E00D4B0E4C4F
:10097000236000BF00BF064B5B68C3F303130C4C3E
:10098000E15C094B1B68CB40074C236010BD0000A5
:1009900000100240002002400000FFF8FFFFF6FEBA
:1009A00008ED00E000127A002004002000093D005C
:1009B0002404002008B50121042001F02BFA402076
:1009C000ADF8000010208DF8030003208DF8020020
:1009D0006946044800F062FF4021024801F00DF82A
:1009E00008BD00000008014008B50121082001F001
:1009F00011FA48208DF803004FF48060ADF8000034
:100A000003208DF8020069460B4800F047FF08BD3F
:100A100010B500244FF48061074800F0D2FF48B9B8
:100A20000A2000F03AFD4FF48061034800F0C9FF4E
:100A300000B90124204610BD000C014008B5012179
:100A4000042001F0E7F910208DF803000002ADF852
:100A5000000003208DF802006946044800F01EFFE4
:100A60004FF48051024800F0C6FF08BD000C014061
:100A70000008014010B54FF48071F94800F0BBFF49
:100A80004FF40071F64800F0B6FF4FF40071F448DF
:100A900000F0B3FF4FF48071F14800F0AEFF10BDDD
:100AA00010B54FF48071EE4800F0A5FF4FF40071CF
:100AB000EB4800F0A2FF4FF40071E94800F09BFF03
:100AC00010BD10B54FF48071E54800F094FF4FF46D
:100AD0008071E34800F091FF10BD2DE9F04105461B
:100AE0002C464FF48071DE4800F087FF00261CE0A2
:100AF000274607F08007802F04D1B900D84800F0BE
:100B00007AFF04E04FF40071D54800F076FF6006EC
:100B1000040E4FF48071D24800F06DFF4FF48071E5
:100B2000CF4800F06AFF701CC6B2082EE0DBBDE8BB
:100B3000F08110B50446FFF79DFF7820FFF7CDFF49
:100B4000FFF7BFFF0020FFF7C8FFFFF7BAFF2046FF
:100B5000FFF7C3FFFFF7B5FFFFF7A2FF10BD10B50A
:100B60000446FFF787FF7820FFF7B7FFFFF7A9FFDD
:100B70004020FFF7B2FFFFF7A4FF2046FFF7ADFFCD
:100B8000FFF79FFFFFF78CFF10BD70B504460D46C1
:100B90001DB1E0B2FFF7E3FF02E0E0B2FFF7C9FFEB
:100BA00070BD70B50646002418E004F1B0000021C5
:100BB000FFF7EBFF00210846FFF7E7FF00211020B9
:100BC000FFF7E3FF002505E001213046FFF7DDFFD9
:100BD000681CC5B2802DF7DB601CC4B2082CE4DBB6
:100BE00070BD06E041F6650100E0491E0029FCD118
:100BF000401E0028F6D17047014605E0002001E0C4
:100C0000421CD0B27B28FBDB0A1EA1F10101F5D109
:100C1000704770B504460D4605F1B0000021FFF79E
:100C2000B4FF102141EA14100021FFF7AEFF04F0D9
:100C30000F000021FFF7A9FF70BD10B500218D2026
:100C4000FFF7A3FF00211420FFF79FFF0021AF2033
:100C5000FFF79BFF10BD10B500218D20FFF795FF1A
:100C600000211020FFF791FF0021AE20FFF78DFF3C
:100C700010BD70B5002418E004F1B0000021FFF7AA
:100C800084FF00210846FFF780FF00211020FFF7B6
:100C90007CFF002505E001210020FFF776FF681C9E
:100CA000C5B2802DF7DB601CC4B2082CE4DB70BD3C
:100CB00070B5002418E004F1B0000021FFF765FFD3
:100CC00000210846FFF761FF00211020FFF75DFFBC
:100CD000002505E001210846FFF757FF681CC5B253
:100CE000802DF7DB601CC4B2082CE4DB70BD2DE95D
:100CF000F04707460E469046994600250024A8F185
:100D00002000C5B27F2F02DD0027B01CC6B2B9F1AA
:100D1000100F24D131463846FFF77BFF002408E04E
:100D200004EB05114F4A505C0121FFF72EFF601CB8
:100D3000C4B2082CF4DB701CC1B23846FFF769FF5F
:100D4000002409E004EB05110831464A505C0121FA
:100D5000FFF71BFF601CC4B2082CF3DB12E0314626
:100D60003846FFF756FF00240AE005EB45013E4AEE
:100D700002EB4101085D0121FFF707FF601CC4B2CF
:100D8000062CF2DBBDE8F08710B50246012000E03A
:100D900050430B1EA1F10104E1B2F9D110BD2DE9C0
:100DA000FF5F074691461E460E9D4FF0000A002445
:100DB00035E0301B401EC1B20A20FFF7E5FFB9FB4A
:100DC000F0F00A21B0FBF1F201FB1208BAF1000FBA
:100DD00014D1701EA04211DDB8F1000F0CD1AB464A
:100DE00005EBDB71491001FB0471C8B22B462022D0
:100DF0000199FFF77CFF10E04FF0010AAB4605EBCD
:100E0000DB71491001FB0471C8B208F13001CAB2AC
:100E10002B460199FFF76BFF00BF601CC4B2B442C0
:100E2000C7DBBDE8FF9F2DE9F04104460F4615469C
:100E3000984600260FE0AA5D434639462046FFF754
:100E400056FF04F10800C4B2782C02DD0024B81C5F
:100E5000C7B2701CC6B2A85D0028ECD1BDE8F08115
:100E6000000C01403EAD000816AB00082DE9F04132
:100E700080460E461546002731464046FFF7C9FE1C
:100E800000240AE0814A02EB8511085D0121FFF789
:100E90007CFE781CC7B2601CC4B2102CF2DB701C44
:100EA000C1B24046FFF7B5FE00240CE06900491CC2
:100EB000764A02EB4111085D0121FFF766FE781CBE
:100EC000C7B2601CC4B2102CF0DBBDE8F0812DE984
:100ED000F04104460F4615461E4609E02A46691CA5
:100EE000CDB239462046FFF7C1FF04F11000C4B26D
:100EF000301EA6F10101CEB2F0D1BDE8F0812DE99E
:100F0000F05F06460F4690461C46DDF828A04FF0DD
:100F1000000BE11704EB5171C910A4EBC10131B909
:100F20002046E11704EB5171C1F3C70506E02046E6
:100F3000E11704EB5171C910491CCDB23D4615E0D3
:100F400029463046FFF765FEB1460BE059460BF1E6
:100F5000010B1AF801000121FFF717FE09F101004A
:100F600000F0FF09C145F1DB681CC5B2A542E7DB13
:100F7000BDE8F09F08B50121082000F04BFF4FF4B9
:100F80004070ADF8000010208DF8030003208DF8AC
:100F9000020069463E4800F081FC4FF440713C4835
:100FA00000F029FD4FF4487000F077FA0021AE20E0
:100FB000FFF7EBFD00210846FFF7E7FD00211020B9
:100FC000FFF7E3FD00214020FFF7DFFD0021B02007
:100FD000FFF7DBFD00218120FFF7D7FD0021FF2077
:100FE000FFF7D3FD0021A120FFF7CFFD0021A620B0
:100FF000FFF7CBFD0021A820FFF7C7FD00213F2010
:10100000FFF7C3FD0021C820FFF7BFFD0021D3205B
:10101000FFF7BBFD00210846FFF7B7FD0021D520F3
:10102000FFF7B3FD00218020FFF7AFFD0021D8209E
:10103000FFF7ABFD00210520FFF7A7FD0021D92018
:10104000FFF7A3FD0021F120FFF79FFD0021DA202B
:10105000FFF79BFD00211220FFF797FD0021DB2009
:10106000FFF793FD00213020FFF78FFD00218D2039
:10107000FFF78BFD00211420FFF787FD0021AF2033
:10108000FFF783FDFFF7F5FD08BD000034040020E5
:10109000000C014010B56248006820F470206049DF
:1010A00008600846006840F44030086000205D4950
:1010B0000860142000F0F1F901205B49C1F89001AB
:1010C0001E2000F0C6F910BD10B500245448006879
:1010D00020F47020524908600846006840F400205F
:1010E000086004E0601CC4B2012000F0B2F94D4871
:1010F0008038006808B1642CF4DB642C01DB01202B
:1011000010BD002404E0601CC4B2012000F0A1F96D
:1011100044488038006808B9642CF4DB642C01DB97
:101120000120EDE70020EBE710B5002404E0601C8F
:10113000C4B2012000F08DF93A488038006808B147
:10114000642CF4DB002404E0601CC4B2012000F035
:1011500080F934488038006808B9642CF4DB282012
:1011600000F077F92F488038006808B1012010BDE1
:101170000020FCE770B50024002506E06006040EA0
:10118000FFF7D2FF0443681CC5B2082DF6DB2046EA
:1011900070BD7CB505460E46FFF77CFFFFF794FF58
:1011A000F8B9002405E0FFF7E5FF0DF80400601C26
:1011B000C4B2052CF7DB9DF800009DF8011008442F
:1011C0009DF8021008449DF8031008449DF804108F
:1011D000884208D19DF8000030709DF80200287008
:1011E00001E001207CBD0020FCE708B501210420BE
:1011F00000F010FE1020ADF800008DF80300032071
:101200008DF802006946064800F048FB10210448AA
:1012100000F0F1FBFFF73EFFFFF756FF08BD0000AF
:1012200000080140900121420000214200B587B032
:1012300001214FF4017000F0EDFD4FF4004000F08B
:101240004DFD0120ADF8040000208DF8070001A934
:101250002E4800F023FB2E4801F052FF00200290A0
:101260008DF80C008DF80D004FF4602004900020E4
:10127000059001208DF8180002A9254801F067FFAC
:101280000121234801F08FFF214801F0AEFF00BF8C
:101290001F4801F0AFFF0028FAD11D4801F0B4FF4C
:1012A00000BF1B4801F0B5FF0028FAD107B000BD10
:1012B00010B50446072301222146154801F0DFFF3F
:1012C0000121134801F0AFFF00BF0221104802F0D6
:1012D0001BF90028F9D00E4802F038F810BD2DE9AE
:1012E000F04107460C460025002608E03846FFF787
:1012F000DFFF0544052000F0D0F8701CC6B2A642FE
:10130000F4DBB5FBF4F080B2BDE8F08100080140E9
:101310000024014008B50121042000F07BFD482095
:101320008DF803000C20ADF8000003208DF80200BA
:101330006946114800F0B2FA00F020F808BD10B577
:101340000446002C0BDB04210B4800F054FB082161
:10135000094800F052FBA0B200F058F80AE004215E
:10136000054800F04AFB0821034800F044FBA0B206
:1013700000F04CF810BD00000008014000B589B035
:101380000121084600F053FD0121042000F042FD38
:1013900018208DF823000220ADF8200003208DF8DE
:1013A000220008A91D4800F079FA4FF0804001F0B2
:1013B000F9F90020ADF81A00ADF816006320ADF879
:1013C00018002320ADF8140000208DF81C0005A99A
:1013D0004FF0804000F056FE01A801F088F960202F
:1013E000ADF804000020ADF80C000120ADF80600B7
:1013F0000020ADF80A0001A94FF0804000F0C1FEC6
:101400000121880701F09AF909B000BD10B5044622
:1014100021464FF0804001F02BFC10BD0008014038
:1014200010B56FF0040000F0BAF92E4800682E499C
:10143000B0FBF1F02D4908700846007800EB400140
:10144000C1EBC0104FF6FF7101EAC00028490880C7
:1014500010BD0146254A12784A434FF0E0235A61F5
:1014600000229A611A46126942F001021A6100BF15
:101470004FF0E022106900F001021AB100F480324E
:10148000002AF5D04FF0E022126922F001024FF05D
:10149000E0231A6100229A6170470146144A1288BB
:1014A0004A434FF0E0235A6100229A611A461269BA
:1014B00042F001021A6100BF4FF0E022106900F013
:1014C00001021AB100F48032002AF5D04FF0E02278
:1014D000126922F001024FF0E0231A6100229A61A2
:1014E000704700002004002000127A00F40700205A
:1014F000F607002010B54FF4A06000F001F910BD10
:1015000010B586B004460121042000F083FC0121BF
:10151000880300F07FFC18208DF817004FF400704E
:10152000ADF8140003208DF8160005A9614800F0FD
:10153000B5F904208DF817000002ADF8140003205F
:101540008DF8160005A95B4800F0A8F90194002069
:10155000ADF810000C20ADF80E000020ADF80C0026
:10156000ADF80A00ADF8080001A9534801F007FCE6
:101570000121514801F08FFC012240F225514E48D3
:1015800001F095FC25208DF8000001208DF8030066
:1015900000208DF801008DF80200684600F0B5F8D3
:1015A00006B010BD10B586B004460121042000F03D
:1015B00031FC0121480400F03AFC18208DF8170096
:1015C0000420ADF8140003208DF8160005A9394851
:1015D00000F064F904208DF817000820ADF814001D
:1015E00003208DF8160005A9324800F057F9019440
:1015F0000020ADF810000C20ADF80E000020ADF872
:101600000C00ADF80A00ADF8080001A92B4801F064
:10161000B6FB0121294801F03EFC26208DF8000090
:1016200001208DF8030000208DF801008DF80200E4
:10163000684600F06AF806B010BD2DE9F041074693
:101640000C46154600260DE014F8011B384601F043
:101650008FFC00BF4021384601F0F8FC0028F9D08B
:10166000701C86B2AE42EFDBBDE8F0810FB430B53E
:10167000CBB0054601AC50A800904FF4947101A87E
:10168000009B4F9A05F0FAFD002000900BE014F843
:10169000011B284601F06CFC00BF4021284601F0E8
:1016A000D5FC0028F9D020780028F0D14BB030BC10
:1016B0005DF814FB00080140003801400044004080
:1016C0000948804709480047FEE7FEE7FEE7FEE7D6
:1016D000FEE7FEE7FEE7FEE7FEE7FEE70448054912
:1016E000054A064B70470000B308000831010008A6
:1016F000200A002020100020200C0020200C0020B8
:1017000031490143314A1160704770B5002100230F
:101710000F22C47804B32D4C246804F4E064C4F5AB
:10172000E064210AC1F10403CA40447804FA03F1D9
:101730008478144021430901254C0678A15504788A
:1017400004F01F050124AC4005786D11AD0005F1D2
:10175000E025C5F8004109E0047804F01F050124E4
:10176000AC401C4D0678761145F8264070BD1A4AEB
:101770000A400243154B1B1F1A60704739B1134AC8
:10178000121D12680243114B1B1D1A6006E00F4A1E
:10179000121D126882430D4B1B1D1A6070470428EE
:1017A00008D14FF0E021096941F004014FF0E02237
:1017B000116107E04FF0E021096921F004014FF0C9
:1017C000E0221161704700000000FA050CED00E016
:1017D00000E400E080E100E080FFFF1F10B5044658
:1017E000CC48844208D10121042000F02DFB0021C7
:1017F000042000F029FB46E0C748844208D10121BB
:10180000082000F021FB0021082000F01DFB3AE039
:10181000C248844208D10121102000F015FB0021AC
:10182000102000F011FB2EE0BD48844208D10121B8
:10183000202000F009FB0021202000F005FB22E021
:10184000B848844208D10121402000F0FDFA00216F
:10185000402000F0F9FA16E0B348844208D1012193
:10186000802000F0F1FA0021802000F0EDFA0AE07B
:10187000AE48844207D10121801500F0E5FA00212D
:10188000A01500F0E1FA10BD10B50121084600F0E6
:10189000DBFA0021012000F0D7FA10BD2DE9F0415C
:1018A000024600250026002000230024002791F88E
:1018B00003C00CF00F0591F803C00CF0100CBCF144
:1018C000000F03D091F802C04CEA050591F800C062
:1018D000BCF1000F31D0146800202BE04FF0010C58
:1018E0000CFA00F3B1F800C00CEA03069E4220D1C6
:1018F00083004FF00F0C0CFA03F7BC4305FA03FC0E
:101900004CEA040491F803C0BCF1280F06D14FF053
:10191000010C0CFA00FCC2F814C00AE091F803C0F4
:10192000BCF1480F05D14FF0010C0CFA00FCC2F8D5
:1019300010C0401C0828D1D31460B1F800C0BCF11D
:10194000FF0F34DD546800202EE000F1080C4FF04A
:10195000010808FA0CF3B1F800C00CEA03069E4235
:1019600021D183004FF00F0C0CFA03F7BC4305FAAA
:1019700003FC4CEA040491F803C0BCF1280F05D124
:1019800000F1080C08FA0CF8C2F8148091F803C0B2
:10199000BCF1480F07D100F1080C4FF0010808FA1C
:1019A0000CF8C2F81080401C0828CED35460BDE863
:1019B000F0814FF6FF710180022181700421C17016
:1019C00070470246002093680B400BB1012000E0F5
:1019D000002070470146886880B2704702460020A8
:1019E000D3680B400BB1012000E000207047014696
:1019F000C86880B2704701617047416170470AB1A1
:101A0000016100E041617047C16070474FF480326E
:101A10000A438261816182618269826970470246FC
:101A20000020434B18684FF68073184040EA0210BC
:101A300008433F4B186070473E49C8617047F0B596
:101A40000A46002300240021002500F00046B6F1DC
:101A5000004F02D1364EF16901E0354E7168C0F396
:101A6000034583B200F44016B6F5401F08D121F0BB
:101A700070612F4E766826F070662D4F7E6012E002
:101A800000F48016B6F5801F06D1032606FA05F489
:101A9000A14341F0706106E0460D360103FA06F6F7
:101AA000B14341F0706122B1460D360103FA06F6EA
:101AB000314300F00046B6F1004F02D11C4EF161F7
:101AC00001E01B4E7160F0BD30B500228B071C0F8A
:101AD0000F2303FA04F2164B08338C1053F824300A
:101AE0009343134C08348D1044F8253023468C1052
:101AF00053F824308C07240F00FA04F423430C4CD1
:101B000008348D1044F8253030BD0A49DC310860B6
:101B10007047000000080140000C01400010014027
:101B20000014014000180140001C01400020014049
:101B30000000014000002042DF48006840F0010042
:101B4000DD49086008464068DC490840DA494860D9
:101B500008460068DA490840D74908600846006826
:101B600020F4802008600846406820F4FE004860A9
:101B70004FF41F0088607047CF49096821F4803115
:101B8000CD4A11601146096821F480211160B0F539
:101B9000803F03D0B0F5802F0ED106E0C64909681A
:101BA00041F48031C44A116007E0C349096841F437
:101BB000A021C14A116000E000BF00BF704710B50E
:101BC00001460022002300204A11012A02D1BA4C0A
:101BD000236806E0022A02D1B74C236A01E0B64C22
:101BE000636A01F01F02012494401C400CB10120E3
:101BF00000E0002010BD38B5002000900024002532
:101C000000BF3120FFF7DBFF05460098401C009025
:101C10000098B0F5A06F01D0002DF2D03120FFF771
:101C2000CEFF08B1012400E00024204638BD014663
:101C30000020A14A106820F0F80040EAC1001060BE
:101C40007047A04908607047024600209A4B5868C8
:101C500020F47C1042EA01031843974B5860704708
:101C600098490866704701460020934A506820F062
:101C700003000843506070478F48406800F00C0034
:101C80007047014600208C4A506820F0F00008435D
:101C90005060704701460020874A506820F4E06099
:101CA00008435060704701460020834A506820F482
:101CB000605040EAC1005060704729B17E4A527AB4
:101CC00002437D4B5A7204E07B4A527A82437A4B3C
:101CD0005A7270477B49D83108607047014600202E
:101CE000754A506820F44040084350607047002116
:101CF000714A20321170704A82F82010012802D0F7
:101D000004280AD104E001216B4A2032117005E059
:101D10000521694A2032117000E000BF00BF704702
:101D20006949086070476449096A0143624A11625F
:101D30007047654944390860704730B5002100227A
:101D4000002400235C4D6D6805F00C0121B10429CD
:101D500005D0082923D105E05C4D056022E05B4DEC
:101D600005601FE0544D6D6805F47012524D6D68AA
:101D700005F48034022505EB92421CB9544D5543BD
:101D800005600BE04C4D6D6805F400351DB1504DFC
:101D90005543056002E04D4D5543056002E04B4D53
:101DA000056000BF00BF444D6D6805F0F0010909F2
:101DB000484D6B5C0568DD4045603F4D6D6805F43E
:101DC000E061090A434D6B5C4568DD4085603A4D32
:101DD0006D6805F46051C90A3E4D6B5C4568DD4095
:101DE000C560354D6D6805F44041890B3A4D6B5C1B
:101DF000C568B5FBF3F5056130BD29B12E4A5269BE
:101E000002432D4B5A6104E02B4A526982432A4B0C
:101E10005A61704729B1284A92690243264B9A6158
:101E200004E0254A92698243234B9A61704729B1A5
:101E3000214AD2690243204BDA6104E01E4AD2698A
:101E400082431D4BDA61704729B11B4AD2680243B5
:101E5000194BDA6004E0184AD2688243164BDA6004
:101E6000704729B1144A12690243134B1A6104E006
:101E7000114A12698243104B1A6170471249403966
:101E8000086070470F49C86470470B49C8717047B4
:101E90000948406A40F0807007494862704701462F
:101EA0000020054A92680A400AB1012000E00020A3
:101EB0007047014988727047001002400000FFF827
:101EC000FFFFF6FE000042428004424200127A0008
:101ED00000093D00F80700200808002010B504465E
:101EE000FE48844208D10121C014FFF7ADFF002154
:101EF000E014FFF7A9FFC4E0B4F1804F08D101213D
:101F00000846FFF7AEFF00210120FFF7AAFFB8E067
:101F1000F348844208D101210220FFF7A2FF0021EB
:101F20000220FFF79EFFACE0EE48844208D1012179
:101F30000420FFF796FF00210420FFF792FFA0E0A6
:101F4000E948844208D101210820FFF78AFF0021D7
:101F50000820FFF786FF94E0E448844208D101217D
:101F60001020FFF77EFF00211020FFF77AFF88E0A6
:101F7000DF48844208D101212020FFF772FF0021B1
:101F80002020FFF76EFF7CE0DA48844208D101216F
:101F90004014FFF759FF00216014FFF755FF70E070
:101FA000D548844209D10121C804FFF74DFF002123
:101FB0004FF40020FFF748FF63E0D048844209D186
:101FC00001210805FFF740FF00214FF48010FFF7C3
:101FD0003BFF56E0CA48844209D101214805FFF77A
:101FE00033FF00214FF40010FFF72EFF49E0C548F2
:101FF000844208D101214020FFF733FF0021402017
:10200000FFF72FFF3DE0C048844208D10121802026
:10201000FFF727FF00218020FFF723FF31E0BB48B7
:10202000844208D101218015FFF71BFF0021A01574
:10203000FFF717FF25E0B648844209D101210804C3
:10204000FFF702FF00214FF48030FFF7FDFE18E09C
:10205000B048844209D101214804FFF7F5FE002170
:102060004FF40030FFF7F0FE0BE0AB48844208D19C
:1020700001218804FFF7E8FE00214FF48020FFF7DC
:10208000E3FE10BD00220288944B98420ED0994B7B
:1020900098420BD0B0F1804F08D0914B984205D0B8
:1020A000904B984202D0904B984204D14FF68F73D8
:1020B0001A404B881A438D4B984207D08C4B98425C
:1020C00004D04FF6FF431A40CB881A4302808B8816
:1020D00083850B880385814B98420BD0854B9842B2
:1020E00008D08B4B984205D08A4B984202D08A4B3D
:1020F000984201D10B7A038601238382704770B521
:10210000002400220023058C4FF6FE76354005841E
:10211000028C8388048B4FF68F752C40B51E2C40A3
:102120000D882C43751E2A400D892A434D882A4369
:102130006A4DA8420BD06F4DA84208D0744DA842FA
:1021400005D0744DA84202D0734DA84213D14FF66A
:10215000F7752A404D892A434FF6FB752A408D8832
:102160002A434FF6FF652B404FF6FF552B408D89D4
:102170002B43CD892B4383800483CD8885860284BD
:1021800070BD70B5002400220023058C4FF6EF7659
:1021900035400584028C8388048B48F6FF752C40FB
:1021A0004FF6FF452C400D884FF6FF7606EA0525D1
:1021B0002C434FF6DF752A400D8906EA05152A43A0
:1021C0004D8806EA05152A43444DA84202D0494DE0
:1021D000A8421DD14FF67F752A404D894FF6FF76F4
:1021E00006EA05152A434FF6BF752A408D8806EA90
:1021F00005152A434FF6FF352B404FF2FF752B4054
:102200008D8906EA85052B43CD8906EA85052B4392
:1022100083800483CD880587028470BD70B5002457
:1022200000220023058C4FF6FF6635400584028CA2
:102230008388848B4FF68F752C404FF6FC752C40AD
:102240000D882C434FF6FF552A400D894FF6FF7637
:1022500006EA05252A434D8806EA05252A431F4D2F
:10226000A84202D0234DA8421DD14FF2FF752A404B
:102270004D894FF6FF7606EA05252A434FF6FF35CE
:102280002A408D8806EA05252A434EF6FF752B4025
:102290004DF6FF752B408D8906EA05152B43CD8938
:1022A00006EA05152B4383808483CD8885870284C5
:1022B00070BD70B5002200230024058C4EF6FF7619
:1022C00035400584038C8488828B48F6FF752A404C
:1022D0004FF6FF452A400D8820E00000002C014009
:1022E0000004004000080040000C004000100040C6
:1022F0000014004000340140004C014000500140F7
:102300000054014000180040001C00400020004024
:102310000040014000440140004801404FF6FF7674
:1023200006EA05252A434DF6FF752B400D8906EA7E
:1023300005352B434D8806EA05352B43FA4DA84257
:1023400002D0FA4DA84208D14BF6FF752C408D897A
:102350004FF6FF7606EA85152C4384808283CD886C
:10236000A0F84050038470BD828B4FF2FF331A40B7
:102370008283828B4FF6FF7303EA01231A43828321
:102380007047F0B50C461546002200210026078C48
:102390004EF6FF7C07EA0C070784828B018C4FF610
:1023A000FF7707EA043640F6FF473A404FF6FF77DB
:1023B00007EA05273A434FF6FF7707EA03373A4320
:1023C000D94FB8420ED0D94FB8420BD0B0F1804FA0
:1023D00008D0D74FB84205D0D64FB84202D0D64F1A
:1023E000B84206D14DF6FF77394046F4805739435D
:1023F00005E047F6FF57394044F48057394382835C
:102400000184F0BD828B4FF6F3731A408283828B76
:102410000A4382837047F0B50C461546002200211E
:102420000026078C4FF6FF6C07EA0C070784828BA7
:10243000018C4FF6FF7707EA04264FF60C773A40F7
:102440004FF6FF7707EA03172F433A43B64FB842D8
:102450000ED0B64FB8420BD0B0F1804F08D0B44F79
:10246000B84205D0B34FB84202D0B34FB84206D1FC
:102470004FF6FF57394046F48077394305E04FF275
:10248000FF57394044F48077394382830184F0BD9B
:10249000028B4FF2FF331A400283028B4FF6FF7319
:1024A00003EA01231A4302837047F0B50C46154630
:1024B000002200210026078C4FF6EF7C07EA0C076C
:1024C0000784028B018C4FF6FF7707EA041640F66B
:1024D000FF473A404FF6FF7707EA03373A434FF694
:1024E000FF7707EA05273A438F4FB8420ED08F4F48
:1024F000B8420BD0B0F1804F08D08D4FB84205D014
:102500008C4FB84202D08C4FB84206D14FF6DF77DD
:10251000394046F01007394305E04FF65F77394000
:1025200044F01007394302830184F0BD028B4FF65B
:10253000F3731A400283028B0A4302837047F0B59B
:102540000C46154600220021068C4FF6FE773E40D1
:102550000684028B018C4FF60C7632407E1C06EA14
:1025600003162E433243704EB0420ED06F4EB0422F
:102570000BD0B0F1804F08D06D4EB04205D06D4EFB
:10258000B04202D06C4EB04206D14FF6FD763140DB
:1025900044F00106314305E04FF6F576314044F052
:1025A0000106314302830184F0BD70B505460C4637
:1025B0005D4885420ED05D4885420BD0B5F1804F15
:1025C00008D05B48854205D05A48854202D05A4817
:1025D000854200D100E000BF208850B92389A2883D
:1025E00061882846FFF7ABFFE1882846FFF79EFF8A
:1025F00025E0208804280AD12389A28861882846FA
:10260000FFF753FFE1882846FFF742FF17E02088D5
:1026100008280AD12389A28861882846FFF7FBFE93
:10262000E1882846FFF7EEFE09E02389A288618849
:102630002846FFF7A6FEE1882846FFF795FE70BD05
:102640002DE9F04105460C4600260127608808B9AF
:10265000022600E00026A088012801D1022700E020
:1026600001272088A0B92389A28861882846FFF71E
:1026700066FFE1882846FFF759FF23893A4631462D
:102680002846FFF712FFE1882846FFF701FF13E015
:102690002389A28861882846FFF707FFE18828463A
:1026A000FFF7F6FE23893A4631462846FFF747FFF3
:1026B000E1882846FFF73AFFBDE8F0810A884B8899
:1026C0001A438B881A43CB881A430B891A434B89C8
:1026D0001A438B891A43A0F8442070474FF6FF71C4
:1026E000818000210180C1804180017270470021FA
:1026F000018041808180C180018141818181C181CE
:102700007047002101804180012181800021C1802A
:10271000018170470021018041808180C180018159
:102720004181818170470000002C0140003401404C
:102730000004004000080040000C004021B1028865
:1027400042F00102028004E002884FF6FE731A4054
:102750000280704731B1B0F8442042F40042A0F842
:10276000442005E0B0F84420C2F30E02A0F8442053
:1027700070471AB183890B43838102E083898B43BD
:10278000838170478182704741EA0203A0F8483094
:1027900070471AB183890B43838102E083898B439D
:1027A0008381704701894FF6F872114001817047AB
:1027B0000A46002101894FF68F73194011430181A8
:1027C000704730B504460D4629462046FFF7F0FF16
:1027D000208940F00700208130BD2DE9F0410446FA
:1027E0000D4616461F46602D06D13B460122314656
:1027F0002046FFF75AFE05E03B46012231462046BF
:10280000FFF79DFE29462046FFF7D2FF208940F0C2
:1028100007002081BDE8F08130B50C460021018918
:10282000C9B24FF6FF7505EA032515432543294331
:10283000018130BD2DE9F04105460E461746984608
:10284000002443463A4631462846FFF7E5FF2C89E7
:102850004FF6F870044044F007044FF68F700440C0
:1028600044F070042C81BDE8F081F0B504460D46BB
:1028700016461F463B46324629462046FFF7CCFF08
:10288000208940F480402081F0BD0185828270471C
:102890000A46002101884FF68F73194011430180C9
:1028A0007047F0B50C4615461E4600210022002355
:1028B0000189028B038C4FF6F877394021434FF69C
:1028C000FC473A4040F201173A434FF6DD773B4070
:1028D0004FF6FF7707EA06172F433B430181028338
:1028E0000384F0BD0A460021018B4FF68F73194017
:1028F0001143018370470A460021018B48F6FF739C
:1029000019404FF6FF7303EA02231943018370470E
:102910000A460021818B4FF68F7319401143818342
:1029200070470A460021818B48F6FF7319404FF625
:10293000FF7303EA022319438183704721B10288A0
:1029400042F08002028004E002884FF67F731A4052
:102950000280704721B1828842F00402828004E044
:1029600082884FF6FB731A408280704721B18288BB
:1029700042F00802828004E082884FF6F7731A4022
:102980008280704721B1828842F00102828004E097
:1029900082884FF6FE731A40828070470A460021F3
:1029A000018B4FF6F77319401143018370470A46B4
:1029B0000021018B4FF2FF7319404FF6FF7303EABA
:1029C00002231943018370470A460021818B4FF689
:1029D000F77319401143818370470A460021818BA8
:1029E0004FF2FF7319404FF6FF7303EA02231943B6
:1029F000818370470A460021018B4FF6FB73194013
:102A00001143018370470A460021018B4FF6FF33C3
:102A100019404FF6FF7303EA0223194301837047FD
:102A20000A460021818B4FF6FB73194011438183C5
:102A300070470A460021818B4FF6FF3319404FF64D
:102A4000FF7303EA02231943818370470A4600217A
:102A5000018B4FF67F7319401143018370470A467B
:102A60000021018BC1F30E014FF6FF7303EA02232D
:102A70001943018370470A460021818B4FF67F730B
:102A800019401143818370470A460021818BC1F3AD
:102A90000E014FF6FF7303EA022319438183704747
:102AA0000A460021018C4FF6FD7319401143018441
:102AB00070470A460021018C4FF6F7731940114305
:102AC000018470470A460021018C4FF6DF731940DC
:102AD0004FF6FF7303EA02131943018470470A4655
:102AE0000021018C4FF67F7319404FF6FF7303EA04
:102AF00002131943018470470A460021018C4FF6E6
:102B0000FF5319404FF6FF7303EA02231943018470
:102B100070470A460021018C4FF2FF7319404FF6AF
:102B2000FF7303EA02231943018470470A46002118
:102B3000018C4DF6FF7319404FF6FF7303EA023321
:102B400019430184704730B5002301248C40A3B29F
:102B5000048C9C430484048C02FA01F5ADB22C432E
:102B6000048430BD30B5002304248C40A3B2048C0F
:102B70009C430484048C02FA01F5ADB22C43048416
:102B800030BD70B5034600200024184618300125DA
:102B90008D40ACB21D8CA5431D8409B1082909D113
:102BA00000EB6100056825F07005056005681543B8
:102BB00005600EE00D1FC5F34E052844056825F499
:102BC000E045056005684FF6FF7606EA02263543C4
:102BD000056070BD21B1028842F00202028004E06B
:102BE00002884FF6FD731A400280704721B10288B7
:102BF00042F00402028004E002884FF6FB731A40A0
:102C00000280704721B1828842F08002828004E015
:102C100082884FF67F731A408280704702884FF691
:102C2000F7731A40028002880A4302807047828844
:102C30004FF68F731A40828082880A4382807047E1
:102C400002894FF6F8731A40028102890A43028111
:102C5000704702894FF67F731A40028102890A4346
:102C600002817047818470478185704781867047F3
:102C70000187704781877047A0F84010704702882D
:102C80004FF6FF431A40028002880A4302807047D1
:102C90000146888E70470146088F70470146888F2D
:102CA00070470146B1F8400070470146888C704774
:102CB0000146088D704702460020138A0B400BB175
:102CC000012000E000207047CA430282704730B5FF
:102CD0000246002000230024158A05EA0103958995
:102CE00005EA010413B10CB1012000E0002030BD61
:102CF000CA4302827047000010B50446FB48844274
:102D000009D101218803FFF79FF800214FF480408B
:102D1000FFF79AF832E0F648844209D101214804CD
:102D2000FFF79FF800214FF40030FFF79AF825E0F5
:102D3000F048844209D101218804FFF792F800216C
:102D40004FF48020FFF78DF818E0EB48844209D15A
:102D50000121C804FFF785F800214FF40020FFF798
:102D600080F80BE0E548844208D101210805FFF70F
:102D700078F800214FF48010FFF773F810BD2DE9AB
:102D8000F04786B005460E460024A24600BFA14685
:102D90000027B08900B100BF2F462C8A4CF6FF7087
:102DA0000440F08804432C82AC894EF6F3100440B2
:102DB000B08831890843718908430443AC81AC8AE7
:102DC0004FF6FF400440B0890443AC8201A8FEF7EF
:102DD000B4FFC648874202D1DDF810A001E0DDF85B
:102DE0000CA0A88900F4004040B10AEBCA0000EB37
:102DF0000A1031684900B0FBF1F807E00AEBCA009D
:102E000000EB0A1031688900B0FBF1F86420B8FBD0
:102E1000F0F004012009642101FB1089A88900F465
:102E2000004040B1322000EBC900B0FBF1F000F0EF
:102E30000700044308E0322000EB09106421B0FBD6
:102E4000F1F000F00F0004432C8106B0BDE8F087DC
:102E50004FF41651016000218180C18001810C2155
:102E6000418100218181704710B502460020108AFF
:102E70004FF2FF0318400B884C8823438C88234370
:102E8000CC8823431843108210BD0021018041806B
:102E90008180C180704721B1828942F400528281D1
:102EA00004E082894DF6FF731A4082817047F0B5C5
:102EB0000346002400260025002040F66A17B94288
:102EC00000D100BF1846C1F3421401F01F060127CC
:102ED00007FA06F5012C01D10C3004E0022C01D1D7
:102EE000103000E014301AB107682F43076002E089
:102EF0000768AF430760F0BD1AB1838A0B43838232
:102F000002E0838A8B4383827047028A4FF6F07314
:102F10001A400282028A0A430282704782894FF273
:102F2000FF731A40828182890A438281704721B1EE
:102F3000828942F00202828104E082894FF6FD73A9
:102F40001A4082817047028A4FF6DF731A4002826C
:102F5000028A0A430282704721B1028A42F4804207
:102F6000028204E0028A4BF6FF731A400282704725
:102F7000C1F308028280704701468888C0F30800C8
:102F80007047818941F0010181817047028BD2B283
:102F90000283028B42EA012202837047028B02F411
:102FA0007F420283028B0A430283704721B1828AE7
:102FB00042F02002828204E0828A4FF6DF731A40D8
:102FC0008282704721B1828A42F01002828204E03C
:102FD000828A4FF6EF731A408282704721B1828A4B
:102FE00042F00802828204E0828A4FF6F7731A40A8
:102FF0008282704721B1828942F40042828103E0DB
:103000008289C2F30E028281704721B1828A42F422
:103010000062828204E0828A4FF2FF731A40828249
:103020007047828A4FF6FB731A408282828A0A4373
:103030008282704721B1828A42F00202828204E0D9
:10304000828A4FF6FD731A40828270470246002042
:10305000B1F5007F00D100BF13880B400BB10120F8
:1030600000E00020704701F40072B2F5007F00D14B
:1030700000BFCA430280704770B502460024002397
:103080000025002040F66A16B14200D100BFC1F30E
:10309000421501F01F03012606FA03F3012D02D1A8
:1030A0009689334006E0022D02D1168A334001E0B2
:1030B000968A33400C12012606FA04F4168834402E
:1030C00013B10CB1012000E0002070BD10B500224A
:1030D000002340F66A14A14200D100BF0A12012465
:1030E0009440A3B2DC43048010BD000000380140CE
:1030F0000044004000480040004C004000500040A8
:1031000010B50446FA48844208D101214015FEF763
:103110009BFE00216015FEF797FE17E0F5488442FC
:1031200008D101210015FEF78FFE00212015FEF7C2
:103130008BFE0BE0F048844208D10121C803FEF762
:1031400083FE00214FF40040FEF77EFE10BD30B537
:103150000246002000235068E84C20400D790C689E
:1031600044EA0524204350609068E54C2040D1E9B2
:1031700002542C434D7944EA450420439060D06AC0
:1031800020F470000C7C641EE4B2234340EA035038
:10319000D06230BD00210160017141718160C16068
:1031A00001210174704721B1826842F001028260FE
:1031B00003E0826822F001028260704721B18268D8
:1031C00042F48072826003E0826822F4807282603E
:1031D000704710B50023CBB21AB144681C43446059
:1031E00002E044689C43446010BD816841F00801DE
:1031F00081607047014600208A6802F008020AB127
:10320000012000E000207047816841F004018160E6
:103210007047014600208A6802F004020AB10120CA
:1032200000E00020704721B1826842F4A002826071
:1032300003E0826822F4A002826070470146002009
:103240008A6802F480020AB1012000E00020704781
:1032500010B50A4600210023416821F46041531E45
:1032600041EA4331416010BD21B1426842F400623D
:10327000426003E0426822F4006242607047F0B5A9
:1032800004460D4600200021092D11DDE068A5F15E
:103290000A0606EB4607072606FA07F18843A5F15A
:1032A0000A0606EB460603FA06F10843E0600CE066
:1032B000206905EB4507072606FA07F1884305EB69
:1032C000450603FA06F108432061072A0FDA606B0E
:1032D000561E06EB86071F2606FA07F18843561E80
:1032E00006EB860605FA06F10843606322E00D2A24
:1032F0000FDA206BD61F06EB86071F2606FA07F1AA
:103300008843D61F06EB860605FA06F108432063BC
:1033100010E0E06AA2F10D0606EB86071F2606FA0A
:1033200007F18843A2F10D0606EB860605FA06F1C1
:103330000843E062F0BD21B1826842F480128260ED
:1033400003E0826822F48012826070470146C86CF4
:1033500080B2704766484C300068704721B14268BF
:1033600042F48062426003E0426822F4806242607C
:10337000704721B1426842F48052426003E04268E3
:1033800022F48052426070470A460021816821F48D
:10339000E04111438160704721B1826842F40042EC
:1033A000826003E0826822F400428260704721B1AB
:1033B000826842F40212826003E0826822F4021200
:1033C00082607047014600208A6802F400120AB148
:1033D000012000E000207047F0B5044615460020AB
:1033E00000220026092911DDE068A1F10A0707EB98
:1033F000470C072707FA0CF29043A1F10A0707EBE5
:10340000470703FA07F21043E0600CE0206901EB84
:10341000410C072707FA0CF2904301EB410703FA2E
:1034200007F210432061A06BC0F30156EF1C06F1B8
:10343000010CA7EB0C0707EB870C1F2707FA0CF210
:103440009043EF1C06F1010CA7EB0C0707EB870775
:1034500001FA07F21043A063F0BD10B50A4600213F
:103460000023816B21F44011531E41EA0351816313
:1034700010BD08B5002300930090009B0B440093FF
:10348000009B1A6008BD08B502460020009000921B
:1034900001F12800009B184400900098006880B259
:1034A00008BD0A4600214168164B1940114341608E
:1034B00070474162826270470A460021416821F0EC
:1034C0001F0111434160704740B109490831096843
:1034D00041F40001064A0832116007E0044908314E
:1034E000096821F40001024A0832116070470000A7
:1034F0000024014000280140003C0140FFFEF0FF95
:10350000FDF7F1FFFFFD3FFF0246002013680B406F
:103510000BB1012000E000207047CA4302607047F1
:1035200070B502460020002300240B125568CEB26D
:1035300005EA060415681D4015B10CB1012000E034
:10354000002070BD00220A12D343036070470000C0
:1035500010B58021A64804F0ACF90020A5490880E8
:1035600010BDA448008808B901207047A148008810
:10357000A1490988884203D100209E490880F4E7C8
:103580009C4800889C4908800120EEE72DE9F04125
:1035900004460D46C826204604F0AAF887B23A46EB
:1035A00021469648FEF749F80FE0FFF7DAFF48B9E1
:1035B00029468F4804F066F820B1FFF7C9FF0020C4
:1035C000BDE8F0810A20FDF768FF301EA6F1010179
:1035D000CEB2EAD10120F3E730B589B004460D46FA
:1035E000FFF7B6FF2A4686A101A803F061FE88A175
:1035F00001A8FFF7CBFF20B92A4621467F48FEF7F6
:103600001CF809B030BD70B50546002400BFFFF7B7
:10361000A8FFB0B97FA1764804F034F8044684B11D
:1036200014237EA206210020FDF7FDFB3A2120464F
:1036300004F00CF8044614B1641C204670BD002050
:10364000FCE70520FDF729FF681E85B2002DDEDCB2
:103650000020F3E708B501210420FEF7DBFB102072
:103660008DF803000001ADF8000003208DF8020082
:1036700069466E48FEF712F900224FF480716B48DC
:10368000FEF7BDF9FA20FDF708FF01221102674895
:10369000FEF7B5F94FF47A70FDF7FFFEFFF758FF1C
:1036A000142363A206210020FDF7BDFB142364A2AE
:1036B00000210846FDF7B7FB11E000224FF48071AE
:1036C0005A48FEF79CF9FA20FDF7E7FE01221102A5
:1036D0005648FEF794F94FF47A70FDF7DEFE5CA1D0
:1036E0005CA0FFF753FF0028E7D114235BA2002161
:1036F0000846FDF798FB48A15CA0FFF747FF4FF491
:10370000FA70FDF7CAFE44A15BA0FFF73FFF4FF43C
:10371000FA70FDF7C2FE03E04FF4FA70FDF7BDFE4C
:103720004BA159A0FFF732FF0028F5D103E04FF479
:10373000FA70FDF7B2FE46A157A0FFF727FF002859
:10374000F5D1142358A20221FDF76DFB03E04FF4DD
:10375000FA70FDF7A2FE57A158A0FFF717FF002847
:10376000F5D114235DA20221FDF75DFB14235EA2B7
:1037700004210020FDF757FB03E04FF4FA70FDF73A
:103780008CFE5CA15DA0FFF701FF0028F5D114239A
:1037900065A20421FDF747FB142366A20621002041
:1037A000FDF741FB4FF4FA70FDF777FEFDF761FA84
:1037B00008BD10B540F225511048FFF75DFCB0B1CF
:1037C0000C480088802802D300200A4908800B4852
:1037D000001D0088C1B2074802880088401C054BC4
:1037E00018800348815420210448FFF73CFC10BD99
:1037F000300900200C0800200E080020003801408D
:1038000041542B43495053454E443D25640D0A0015
:103810003E0000004950442C0000000020202020E1
:10382000202020202020202020000000000801402F
:1038300057616974696E6720696E69742E2E000085
:103840003145535038323636202E2E2E00000000DF
:103850004F4B000041540D0A000000003145535009
:1038600038323636204F4B210000000041542B5295
:1038700053540D0A0000000041542B434950434C5F
:103880004F53450D0A00000041542B43574D4F4400
:10389000453D310D0A00000041542B435744484335
:1038A000503D312C310D0A003257494649202E2E09
:1038B0002E000000474F54204950000041542B4334
:1038C000574A41503D2263646B32363934222C22F0
:1038D0003030303030303030220D0A003257494617
:1038E00049204F4B21000000334F4E454E45542098
:1038F0002E2E2E00434F4E4E4543540041542B4331
:10390000495053544152543D22544350222C227466
:103910002E796F796F6C6966652E66756E222C3113
:103920003838330D0A000000334F4E454E455420C1
:103930004F4B2100496E6974204F4B2120202020DD
:103940002020000070B504460E460025206898B976
:1039500001202073304603F0D1FB20602068E0B1E5
:1039600000206060A66003E00020216848556D1CBF
:10397000A068A842F8D810E00220207303E00020DD
:10398000216848556D1CA068A842F8D800206060E6
:10399000A068B04201D20020206070BD10B504467E
:1039A000207B012802D1206803F0D7FB0020206093
:1039B0006060A060207310BD0246002301230DE06B
:1039C00002F07F000870D2092AB1087840F0800028
:1039D0000870491C01E0184670475B1C042BEFDDA2
:1039E0004FF0FF30F8E7F0B504460D4626460123B8
:1039F00000201060002114E0775C07F07F0710685A
:103A000007FB03001060705C00F0800008B9481CE0
:103A1000F0BDDB01B3F5001F02D36FF00100F7E743
:103A2000491CA942E8DB4FF0FF30F1E7F8B5044646
:103A3000FF2720780511012D01DB0E2D01DD384611
:103A4000F8BD032D24D1002000906A460421601C9B
:103A5000FFF7C9FF2044461C0098022803D32078B2
:103A600000F0010008B1FF20EAE77078317840EA01
:103A70000120801C0099884201D9FF20E0E7F8A1CD
:103A8000B01C03F0FFFD08B10F2700E0032700E0A2
:103A90002F463846D4E72DE9FF4F83B082468B4648
:103AA0009146159C0025002002900F270190484662
:103AB00003F01EFE0FFA80F8B9F1000F03D10120C8
:103AC00007B0BDE8F08F08F10200384487B21098C3
:103AD00008B145F00205129878B145F00405129836
:103AE00003F006FEC0B20290139803F001FE0146F7
:103AF0000298001D0844384487B2119820B101286B
:103B000004D0022808D104E000BF07E045F00C050E
:103B100004E045F0140501E00220D1E700BF14984D
:103B200008B145F02405BAF1000F02D0BBF1000F37
:103B300001D10320C4E745F0C005504603F0D8FD8D
:103B40000646584603F0D4FD3044001D384487B281
:103B500039462046FFF7F6FE206808B90420AFE793
:103B60003946206803F0A5FE10216268501C606091
:103B700020688154D4E90023D118781FFFF71CFF77
:103B800000B201900198002804DA2046FFF706FFF2
:103B9000052095E76168019808446060002162682B
:103BA000501C60602068815404216268501C606071
:103BB000206881544D216268501C606020688154E7
:103BC00051216268501C60602068815454216268F1
:103BD000501C6060206881546268501C60602068DE
:103BE000815404216268501C6060206881546168BF
:103BF000481C6060206845540698010A6268501CA1
:103C00006060206881540698C1B26268501C606090
:103C100020688154C8F307216268501C60602068E6
:103C200081546268501C6060206800F80280D4E90A
:103C3000001288184246494603F012FD606840446D
:103C4000606005F00400B8B30026139808B986A098
:103C50001390129803F04CFD86B2310A6268501C32
:103C60006060206881546268501C606020688654DF
:103C7000D4E9001288183246129903F0F1FC60680A
:103C800030446060139803F033FD86B2310A6268F5
:103C9000501C6060206881546268501C606020681D
:103CA0008654D4E9001288183246139903F0D8FCE0
:103CB00060683044606000BF05F08000C8B15046C5
:103CC00003F016FD86B2310A6268501C60602068FD
:103CD00081546268501C606020688654D4E90012E8
:103CE00088183246514603F0BBFC6068304460607F
:103CF00000BF05F04000C8B1584603F0F9FC86B299
:103D0000310A6268501C6060206881546268501CEF
:103D1000606020688654D4E90012881832465946FB
:103D200003F09EFC60683044606000BF0020C7E67E
:103D300010B5044602212046FFF704FE206808B9AA
:103D4000012010BDE0216268501C60602068815431
:103D500000216268501C6060206881540020F0E7F8
:103D600001464878022801D001207047887810B1B8
:103D70008878012801D1C878F7E7FF20F5E72DE919
:103D8000FF4F83B0834617469946139C00250026B3
:103D90000020029001908046BBF1000F03D101206A
:103DA00007B0BDE8F08F00260AE00498805D232864
:103DB00003D00498805D2B2801D10220F0E7761C07
:103DC0000498805D0028F0D148F03008119808B1BF
:103DD00048F0010806EB0900851C109820B1012865
:103DE00004D002280AD105E000BF09E048F002082B
:103DF000AD1C05E048F00408AD1C01E00320CFE74E
:103E000000BF67B33878022821D14FF0000A00BF05
:103E100050460AF1010A385C7D28F9D1AAF1030A5B
:103E20000AF1070002900298A9EB000AE81CA0EB37
:103E30000A012046FFF786FD206808B90420AFE795
:103E4000EA1CA2EB0A01206803F033FD1FE0691DA4
:103E50002046FFF777FD206840B90420A0E70AE07C
:103E6000246372657100000000000000691D206875
:103E700003F01FFD0BE0691D2046FFF763FD20687E
:103E800008B904208CE7691D206803F012FD616801
:103E9000481C6060206800F80180D4E900028118A5
:103EA0002846FFF789FD01900198002804DA204692
:103EB000FFF774FD052073E76168019808446060AE
:103EC000C6F307216268501C6060206881546268F4
:103ED000501C606020688654D4E90012881832466D
:103EE000049903F0BDFB606830446060109860B1D5
:103EF0004FEA1B216268501C606020688154626830
:103F0000501C6060206800F802B0C7B13878022801
:103F10000BD1D4E9001288183946029A03F052FCFA
:103F2000616802980844606009E0D4E900128818CA
:103F30004A46394603F046FC606848446060002009
:103F40002EE72DE9FF4107460D4690461E460A9C86
:103F500001200021CDE90001EB1C0A46FAA1CDE9C0
:103F600002040520FFF70BFF88B96168481C6060F8
:103F700020684654C5F307216268501C60602068C1
:103F800081546268501C60602068855403E0012001
:103F900004B0BDE8F0810020FAE72DE9F04F85B0CC
:103FA00080460D46914601200490002700260024FB
:103FB0004FF0000A404603F09BFB00F10D0B584602
:103FC00003F09CF807461FB9049805B0BDE8F08FD0
:103FD0004246DEA1384603F06BF9384603F088FB11
:103FE000C6B2F01D00EB050AAAEB050003F086F847
:103FF000044624B9384603F0B0F80498E5E70220F7
:10400000207000206070A67032463946E01C03F034
:10401000D9FB290EF01C2154C5F30741301D215452
:10402000C5F30721701D2154B01D25540120002126
:10403000CDE9000153462246C3A1CDE9020905207E
:10404000FFF79DFE08B900200490384603F085F87C
:10405000204603F082F80498B7E72DE9F84380463C
:104060000C4615461E462F2108F1060003F0EEFA15
:1040700007460020009017B90120BDE8F8837F1C97
:104080006A46042108F10100FFF7ADFC252003F08A
:1040900035F82060206808B90220EEE72521206865
:1040A00003F007FC24223946206803F08BFB2437F9
:1040B00000982C3830803188481C03F01FF82860A5
:1040C000286820B9206803F048F80320D5E7328833
:1040D000511C286803F0EDFB32883946286803F04C
:1040E00071FB0020C9E72DE9FF5F07460D469046AA
:1040F000384603F0FDFA86B2284603F0F9FA1FFAB3
:1041000080FA4FF00009F01D02F0F8FF04461CB9D8
:10411000012004B0BDE8F09FF11D204603F0C9FB6B
:104120008EA0016821608088A080324639462046F2
:1041300003F096FA284603F0DBFA834601200021BB
:1041400000915B462A46CDE90208019121460520EF
:10415000FFF715FE10B94FF0000901E04FF001091B
:10416000204602F0FAFF4846D3E72DE9FF5F80467C
:10417000174699460E9C0026B246B3460025B8F174
:10418000000F03D1012004B0BDE8F09F0BE057F809
:10419000250008B90220F6E757F8250003F0A8FA31
:1041A0000644681CC5B24D45F1DB09EB4900801C93
:1041B00000EB060A0AF105012046FFF7C3FB206861
:1041C00008B90320DFE782216268501C6060206824
:1041D0008154D4E9000281185046FFF7EDFB0FFA35
:1041E00080FBBBF1000F04DA2046FFF7D7FB042069
:1041F000C9E76068584460604FEA18216268501C43
:104200006060206881546268501C6060206800F81B
:104210000280002524E057F8250003F069FA0646DD
:10422000C6F307216268501C606020688154626890
:10423000501C606020688654D4E90023D01857F8D9
:104240002510324603F00CFA606830446060019833
:10425000C1B26268501C606020688154681CC5B29D
:104260004D45D8DB00208EE70146FF208A78A2B9B1
:10427000CA78142A11D10A7932B1012A05D0022A4A
:1042800004D0802A06D103E000BF00BF002003E075
:10429000012001E0022000BF00BF70472DE9F05F60
:1042A00080460F4691461C460026B246B34600257E
:1042B000B8F1000F02D10120BDE8F09F0BE057F8E4
:1042C000250008B90220F7E757F8250003F010FA97
:1042D0000644681CC5B24D45F1DB022000EB4900E5
:1042E00000EB060A0AF105012046FFF72BFB2068C8
:1042F00008B90320E0E7A2216268501C60602068D2
:104300008154D4E9000281185046FFF755FB0FFA9B
:1043100080FBBBF1000F04DA2046FFF73FFB0420CF
:10432000CAE76068584460604FEA18216268501C10
:104330006060206881546268501C6060206800F8EA
:10434000028000252CE00000246470007B2264734E
:104350005F6964223A222573227D00002463727310
:10436000702F000057F8250003F0C2F90646C6F387
:1043700007216268501C6060206881546268501C8C
:10438000606020688654D4E90023D01857F82510BF
:10439000324603F065F9606830446060681CC5B25D
:1043A0004D45DFDB002087E7014601208A781AB9F6
:1043B000CA781E2A00D1002070472DE9FC5F814693
:1043C0000D4614461E46DDE90C8B99F8000000F0FE
:1043D0000F0A002001900AF008000090CAF3410083
:1043E0008BF8000001AA042109F10100FFF7FBFA94
:1043F0004844471C0198022802D30AF0010010B17A
:10440000FF20BDE8FC9F7878397840EA01202080C1
:104410002088801C0199884201D9FF20F1E7AFF282
:10442000C051B81C03F02EF908B10F20E9E79BF842
:10443000000020B101283DD0022877D13BE0009850
:1044400008B1FF20DDE72188481C02F057FE2860F4
:10445000286808B9FF20D4E72288511C286803F097
:1044600028FA2288B91C286803F0ACF90198801E4C
:104470002188401AA8F80000B8F80010481C02F083
:104480003DFE3060306820B9286802F066FEFF20EB
:10449000B7E7B8F80020511C306803F00AFAB8F802
:1044A0000020B4F800C0BB1C0CEB0301306803F023
:1044B00089F94FE000BF2088801C0199884201D90A
:1044C000FF209EE72088C01C395C2088801C385C57
:1044D00041EA00210E9801800E9808B9FF2090E76C
:1044E0002188481C02F00AFE2860286808B9FF20CD
:1044F00087E72288511C286803F0DBF92288B91C61
:10450000286803F05FF90198001F2188401AA8F875
:104510000000B8F80010481C02F0F0FD3060306870
:1045200028B9286802F019FEFF206AE710E0B8F801
:104530000020511C306803F0BCF9B8F80020B4F832
:1045400000C03B1D0CEB0301306803F03BF901E0B8
:10455000FF2056E700BF2B21284603F077F820B94B
:104560002321284603F072F808B1FF2049E7002014
:1045700047E770B505460C4604212046FFF7E2F9EF
:10458000206808B9012070BD40216268501C60603D
:104590002068815402216268501C60602068815448
:1045A00029126268501C6060206881546268501C47
:1045B0006060206885540020E5E7014648780228BD
:1045C00001D001207047887820B9C878052801D12A
:1045D0000020F7E70120F5E770B505460C460421F9
:1045E0002046FFF7AFF9206808B9012070BD5021BF
:1045F0006268501C60602068815402216268501C0F
:1046000060602068815429126268501C60602068D4
:1046100081546268501C6060206885540020E5E782
:1046200001464878022801D001207047887820B9D7
:10463000C878052801D10020F7E70120F5E770B51B
:1046400005460C4604212046FFF77CF9206808B98E
:10465000012070BD62216268501C60602068815436
:1046600002216268501C60602068815429126268CF
:10467000501C6060206881546268501C6060206833
:1046800085540020E5E702465078022801D0012039
:1046900070479078B0EB112F05D1D078CBB298420B
:1046A00001D10020F4E70120F2E770B505460C4681
:1046B00004212046FFF746F9206808B9012070BDA3
:1046C00070216268501C6060206881540221626819
:1046D000501C60602068815429126268501C606020
:1046E000206881546268501C6060206885540020F6
:1046F000E5E701464878022801D001207047887814
:1047000020B9C878052801D10020F7E70120F5E796
:1047100010B5044602212046FFF714F9206808B9B5
:10472000012010BDC0216268501C60602068815467
:1047300000216268501C6060206881540020F0E70E
:1047400030B58BB000200790089009900A900125A1
:1047500007A8002102910391CDE9041000912B02DA
:10476000F7A20191F7A1F9A0FFF795F9002850D120
:10477000089A91B20798FEF72FFFFA20FEF743FF41
:104780000446002C41D02046FFF750F902283CD1C6
:104790002046FFF7E5FA06282FD2DFE800F0030BEA
:1047A000121920271423F2A200210846FCF73BFB34
:1047B000002529E01423F0A200210846FCF733FB72
:1047C00022E01423EEA200210846FCF72CFB1BE09C
:1047D0001423EDA200210846FCF725FB14E0142366
:1047E000EBA200210846FCF71EFB0DE01423EAA211
:1047F00000210846FCF717FB06E01423E8A200217D
:104800000846FCF710FB00BF00BF07A8FFF7C6F87B
:1048100005E01423E4A200210846FCF704FB284627
:104820000BB030BD70B586B004460D4600260020A2
:10483000029003900490059007E054F82620DCA134
:10484000E148FCF713FF701CC6B2AE42F5DB02A8CC
:104850002B462246022100901420FFF786FC38B92F
:10486000039A91B20298FEF7B7FE02A8FFF796F8F6
:1048700006B070BD70B588B005460C4600200490A7
:10488000059006900790204602F032FF064604A8E5
:10489000012100220223CDE90032CDE90210334686
:1048A000224629460520FFF76AFA38B9059A91B2DF
:1048B0000498FEF791FE04A8FFF770F808B070BDE9
:1048C0002DE9F0438DB00746002009900A900B9027
:1048D0000C90089007900690059000250490002405
:1048E000002680463846FFF7A1F80546E81E0D2849
:1048F0007ED2DFE800F01EF7F6F5F47DF37DF27D61
:104900007D7D070005AB08AA07A93846FFF7A5FB80
:1049100004466CB909AADDE90701FFF7E4FB38B9E1
:104920000A9A91B20998FEF757FE09A8FFF736F8E0
:10493000F4E1A64804A905AA08ABCDE9002102903C
:1049400006AA07A93846FFF738FD0446002C71D1A6
:10495000089801F079FA9E4908600846006840B955
:1049600000F082FA81464A469AA19748FCF77EFEFB
:10497000BDE09DA19648006801F019FD9C490860C2
:10498000084600689BA1026A8F48FCF76FFE9848B2
:10499000006898A102698C48FCF768FE9449096890
:1049A000086999A102F06EFE98B199A18848006843
:1049B00001F0FDFC8E49086008460068406940B17E
:1049C000FCF749F90020FCF7BAFC40219248FDF7BA
:1049D00014F887490968086990A102F053FE98B15C
:1049E0008BA17B48006801F0E2FC8149086000E08F
:1049F00091E108460068406918B13220FCF79FFC3D
:104A000002E01E20FCF79BFC79490968086985A132
:104A100002F038FE90B17EA16D48006801F0C7FC3D
:104A20007349086008460068406920B10020FCF71F
:104A300086FC03E05FE01E20FCF781FC6C490968FE
:104A400008697AA102F01EFE08B371A160480068EF
:104A500001F0ADFC6649086008460068406988B10D
:104A6000FCF7EBF80423032202210020FCF72FFAC5
:104A70000323002211461046FCF729FA1E20FCF7FA
:104A80005EFC04E0FCF7E7F80020FCF758FC58490E
:104A90000968086968A102F0F5FD38B15CA14C48CD
:104AA000006801F084FC5249086000BF5049096861
:104AB000086962A102F0E6FDC8B155A1444800684A
:104AC00001F075FC4A49086008460068406950B129
:104AD00040215148FCF78FFF09E00EE1FFE0F5E0CF
:104AE000D8E012E008E040214B48FCF786FF384848
:104AF000006800F06CFA11E13846FFF75EFD18B966
:104B000050A13148FCF7B2FD08E13846FFF788FDB7
:104B1000A0B954A12C48FCF7A9FD09A90520FFF76D
:104B20008EFD58B955A12848FCF7A0FD0A9A91B20C
:104B30000998FEF751FD09A8FEF730FFEEE00000EE
:104B400063646B0031323331323300003333356507
:104B500030326465346264633064393237333864C8
:104B6000656362663435393964613862000000007B
:104B7000546970733A4F4B004552524F5231000006
:104B80004552524F523200004552524F52330000AC
:104B90004552524F523400004552524F5235000098
:104BA0004552524F523600004552524F52000000BB
:104BB00053756273637269626520546F7069633AFA
:104BC0002025730D0A000000004400401808002052
:104BD000100800204572726F72206265666F726500
:104BE0003A5B25735D0A00007461726765740000AA
:104BF000140800206A736F6E5F766C6175653D20E6
:104C000025640D0A0000000073746F70000000003E
:104C100076616C7565000000000801406A69736880
:104C2000750000007A616E74696E67006469616E78
:104C30007975616E00000000787900006368756A1C
:104C4000756E0000546970733A094D5154542050E8
:104C500075626C6973682053656E64204F4B0D0A52
:104C600000000000546970733A095265762050754F
:104C7000626C6973685265630D0A00005469707351
:104C80003A0953656E64205075626C6973685265A9
:104C90006C0D0A003E4801883846FFF7F4FCA0B9C5
:104CA0003CA14248FCF7E2FC09A90520FFF7FDFC06
:104CB00058B93FA13D48FCF7D9FC0A9A91B209982E
:104CC000FEF78AFC09A8FEF769FE27E03846FFF7E1
:104CD00010FD18B93DA13548FCF7C8FC1EE0384668
:104CE000FFF7C2FA20B93FA13048FCF7BFFC03E050
:104CF00043A12E48FCF7BAFC10E03846FFF754FBFE
:104D000020B946A12948FCF7B1FC03E04AA1274895
:104D1000FCF7ACFC02E04FF0FF3400BF00BFFEF731
:104D200017FC601C10B90DB0BDE8F0837B2108981A
:104D300002F08CFC064646B3601C30B3761C30781B
:104D4000A0F1300844A1089802F09CFC58B1B8F1D9
:104D5000000F01D1012000E00020404908600898C0
:104D600002F0FBF907E03EA1089802F08BFC10B1BD
:104D7000089802F0F2F90F2D01D0032D05D1079804
:104D800002F0EBF9089802F0E8F900BFCBE7000069
:104D900018080020546970733A09526576205075DE
:104DA000626C69736852656C0D0A00000044004033
:104DB000546970733A0953656E64205075626C696A
:104DC0007368436F6D700D0A0000000054697073C2
:104DD0003A09526576205075626C697368436F6D4D
:104DE000700D0A00546970733A094D5154542053A0
:104DF0007562736372696265204F4B0D0A00000093
:104E0000546970733A094D51545420537562736359
:104E100072696265204572720D0A000054697073F0
:104E20003A094D51545420556E537562736372693B
:104E30006265204F4B0D0A00546970733A094D5159
:104E4000545420556E5375627363726962652045D0
:104E500072720D0A000000006C656400AC81214292
:104E60006265657000000000F8480068F74949680D
:104E700008447047014609B900207047087B102894
:104E800001D10120F9E70020F7E700B502461046FE
:104E9000FFF7F0FF08B9002000BD1069FCE70146EC
:104EA00009B900207047087B082801D10120F9E7E3
:104EB0000020F7E700B502461046FFF7F0FF10B9F3
:104EC0000020E34900BDD2E90601FBE708B50F2049
:104ED00007230122DFA10090E14802F0E9F9E04850
:104EE00008BD70B504460D4604B10DB9012070BD72
:104EF000AC4201D10020FAE705E0207808B9002093
:104F0000F5E7641C6D1C207802F0AAF906462878A3
:104F100002F0A6F98642F0D0207802F0A1F9064608
:104F2000287802F09DF9301AE1E72DE9F0410446B6
:104F30000D460026002714B90020BDE8F081204668
:104F400002F0D6FB461C30462968884707460FB951
:104F50000020F2E732462146384602F033FC38465C
:104F6000EBE738B9BF49C04A1160C0495160C04938
:104F700091607047BB49BC4A1160016809B1016882
:104F80001160BA49B84A5160416809B1416851603D
:104F90000021B54A916011460968B24A914207D191
:104FA000B1494968B14A914202D1B149AE4A9160D2
:104FB00000BFDEE770B50446282021688847054613
:104FC0001DB12821284602F096FC284670BD70B518
:104FD0000446002522E02568A08900F4807020B9ED
:104FE000A06810B1A068FFF7F2FFA08900F48070FC
:104FF00028B9206918B19C4A206951688847A0895E
:1050000000F4007028B9206A18B1974A206A5168E4
:10501000884795484168204688472C46002CDAD1BD
:1050200070BD2E2070472DE9F04391B080460C46AC
:1050300000BF00201090FFF7F4FF814600250CB15F
:10504000206818B9002011B0BDE8F08300253CE0CD
:10505000A16820680844405D342820D00ADCA0F113
:105060002B0009282ED2DFE800F0202D212A2D1652
:1050700017181900382816D006DC352810D0362825
:105080000FD037281ED10DE039280DD045280FD07C
:10509000652817D10BE000BF00BF00BF00BF00BFF5
:1050A00000BF00BF00BF00BF00BF00BF00BF00BF08
:1050B000A16820680844405D0DF8050003E00DF884
:1050C000059000E00AE000BF6D1C3F2D05D224B121
:1050D000A068284461688842BAD300BF00200DF858
:1050E000050010A9684605F017F806460F46684601
:1050F0001099884201D10020A5E7C8E906675D4AFA
:105100005D4B3046394605F0EBFA04D86FF00040AD
:10511000C8F8140011E00022584B3046394605F01B
:10512000A5F904D84FF00040C8F8140005E0304657
:10513000394605F055F9C8F814000820C8F80C00E5
:10514000A0686A461099891A0844A06001207AE78D
:1051500070B5064614461D46464A474B204629462A
:1051600005F0BEFA03D86FF0004070610FE0002236
:10517000424B2046294605F079F903D84FF000400C
:10518000706104E02046294605F02AF97061204646
:105190002946C6E9064570BD10B504463248416847
:1051A0002046884710BD2DE9F04104460E460025F3
:1051B000207B00F0100018B1A08900F4807010B1BD
:1051C0000020BDE8F081304602F092FA07462069DF
:1051D00002F08EFA874205D83146206902F064FA5F
:1051E0002069EEE720493046FFF79FFE05460DB9DE
:1051F0000020E6E7206910B12069FFF7CDFF2561A7
:105200002846DEE72DE9F04104460D46002600273A
:105210000CB1206810B90020BDE8F081606828B1A9
:10522000D4E90110884201D30020F5E7B5F1004F21
:1052300001D30020F0E7A068401C05446068A84244
:105240001ED3A16820680844E6E700001C0800207F
:105250000000F87F25692E25692E256900000000D1
:10526000B0090020FD700008240800205B710008D0
:10527000A97100080000C0FFFFFFDF410000E0C18E
:10528000206908B10020C7E7B5F1804F07D3B5F119
:10529000004F02D26FF0004702E00020BCE76F0031
:1052A000206A60B13946226A206890470646DEB916
:1052B000E16920688847002060602060ACE73846DC
:1052C000A1698847064636B9E16920688847002009
:1052D00060602060A0E7A068421C3046216802F0B0
:1052E00071FAE1692068884767602660A0683044E9
:1052F00092E770B5044600250CB1206800B970BD76
:10530000A16820684518284602F0F2F9A16808440F
:10531000A06000BFF3E72DE9FC5F04460D4616468A
:105320001F4627F00043B24625F000405246CDE923
:1053300000402046019905F0D3F903D225F0004141
:10534000204602E027F00041304680468946002290
:10535000F84B4046494605F0C5F882468B46324632
:105360003B462046294605F0F1F921F0004152461E
:105370005B46CDE9000105F079F802D80120BDE8CF
:10538000FC9F0020FBE72DE9F04F8BB081460F46D4
:105390004FF0000AD9E90645D04600261C2104A892
:1053A00002F0A9FAFFF73DFE834600200290039029
:1053B00017B90BB0BDE8F08FCDE90045DDE900215C
:1053C0000AB1012200E0002241EA020020F000417F
:1053D000D94A511AC90F61B9CDE900455100019868
:1053E000B1EB400F03D1009808B9012000E0002084
:1053F00028B1D2A104A801F05BFF80462EE0D9F8C5
:10540000140005F01CF822462B46CDE9000104F0FB
:10541000ABFF07D1CBA104A8D9F8142001F048FFB5
:1054200080461BE022462B46C7A104A801F040FF9E
:10543000804602AAC6A104A802F0EAF8012806D113
:1054400022462B46DDE90201FFF765FF30B922460F
:105450002B46C0A104A801F02BFF8046B8F1000F35
:1054600002DBB8F1190F01DD0020A2E708F101010C
:105470003846FFF7C7FE8246BAF1000F01D100207F
:1054800097E700260DE004A8805D584503D12E2043
:105490000AF8060004E004A8805D0AF8060000BFD0
:1054A000761C4645EFD300200AF80600B868404451
:1054B000B86001207DE702460023002100BF23E001
:1054C000505C302806DB505C392803DC505C3038F7
:1054D000034415E0505C412806DB505C462803DCA1
:1054E000505C373803440BE0505C612806DB505CAD
:1054F000662803DC505C5738034401E00020704705
:10550000032900D21B01491C0429D9D31846F6E708
:105510002DE9FF5F80468946154600240026C246D5
:1055200000200390834602900190A9EB0A00062810
:1055300000DA81E00AF10200FFF7BDFF0646B6F58A
:105540005C4F03D3B6F5604F00D275E0B6F5584F07
:1055500029D3B6F55C4F26D20AF106070020009049
:105560000C200290A9EB0700062800DA64E03878E6
:105570005C2802D17878752800D05DE0B81CFFF770
:105580009AFF00900098B0F55C4F03D30098B0F5F7
:10559000604F00D350E0C6F30901009861F39F20EB
:1055A00000F5803402E0062002903446802C02D2BE
:1055B0000120039018E0B4F5006F04D2022003909C
:1055C000C020019010E0B4F5803F04D20320039086
:1055D000E020019008E0B4F5881F04D20420039075
:1055E000F020019000E027E00398401E00F0FF0B40
:1055F0000BE004F0BF0040F08000296801F80B00C8
:10560000A409ABF1010000F0FF0BBBF1000FF0DCCF
:105610000398012804DD019820432968087003E0FD
:1056200004F07F00296808702968039808442860FE
:10563000029804B0BDE8F09F0020FAE72DE9F84F8A
:1056400080460C46A16820680844461CA168206872
:105650000844451C002000900027A1682068405C99
:10566000222800D0BAE04FF0000AD1460DE0287899
:105670005C2809D1681C2168401A6168884200D3FF
:10568000ACE009F101096D1C6D1C2068281A6168E5
:10569000884202D228782228E9D12068281A616835
:1056A000884202D22878222800D097E0A16820689A
:1056B0000844281AA0EB090A0AF101002169884769
:1056C000074607B98AE0009775E030785C2807D074
:1056D00016F8010B009908700098401C00906AE0D1
:1056E0004FF00209A81B012800DA77E070786628DD
:1056F00019D008DC222846D02F2846D05C2843D079
:10570000622854D108E06E2828D072282DD0742841
:1057100032D075284BD13FE00820009908700098DE
:10572000401C009044E00C20009908700098401C38
:1057300000903DE00000B03C0000F07F6E756C6CA6
:10574000000000002564000025312E31356700007F
:10575000256C670025312E31376700000A2000993B
:1057600008700098401C009022E00D2000990870FD
:105770000098401C00901BE00920009908700098D8
:10578000401C009014E000BF00BF707800990870C2
:105790000098401C00900BE06A4629463046FFF70F
:1057A000B7FE8146B9F1000F00D117E000E015E027
:1057B00000BF4E4400BFAE4287D30020009908705E
:1057C0001020C8F80C00C8F810702068281AA060D3
:1057D000A068401CA0600120BDE8F88F17B13846D2
:1057E0006169884716B12068301AA0600020F3E78D
:1057F0002DE9F04707468A46002400260025A046EA
:10580000A146BAF1000F02D10020BDE8F0876FB9C0
:1058100003215046FFF7F6FC06460EB90020F4E7D8
:10582000FCA1304601F040FF0120EEE73C4622E0BB
:1058300020780C2811D006DC08280DD009280FD0BC
:105840000A2810D10AE00D2809D0222802D05C28AD
:1058500009D100E000BF00BF00BF00BF00BF00BF14
:1058600009F1010905E02078202801DA09F105098C
:1058700000BF00BF641C20780028D9D1E01B00EBDA
:10588000090808F103015046FFF7BCFC06460EB9B3
:105890000020BAE7B9F1000F0FD122203070424644
:1058A0003946701C01F08EFF222108F101003154AD
:1058B0000021401C31540120A7E722203070751CC4
:1058C0003C463DE020781F2808DD2078222805D0BE
:1058D00020785C2802D0207828702FE05C2005F822
:1058E000010B20780C2815D006DC08280FD00928D9
:1058F00019D00A281AD110E00D2811D0222803D07F
:105900005C2813D1287018E02220287015E062204E
:10591000287012E0662028700FE06E2028700CE0DE
:105920007220287009E07420287006E02278BAA15D
:10593000284601F0BDFC2D1D00BF00BF641C6D1C7E
:1059400020780028BED1222108F101003154002125
:10595000401C3154012058E770B504460D462946D5
:105960002069FFF745FF70BD014609B1086808B915
:105970000020704719B1D1E90120904201D30846B7
:10598000F7E702E08868401C886041B1D1E9012056
:10599000904204D28A680868805C2028F2DDD1E950
:1059A0000120904202D18868401E88600846E0E7E6
:1059B00010B504461CB1206808B1A06808B10020E9
:1059C00010BD7CB1A068001D616888420AD2A2683F
:1059D00021688818032292A101F0A9FE10B9A068DD
:1059E000C01CA0602046EBE72DE9F04180460C4644
:1059F00000260025E068B0F57A7F02D30020BDE8DC
:105A0000F081E068401CE06044B1D4E901108842B4
:105A100004D2A1682068405C7B2800D07DE0A068AB
:105A2000401CA0602046FFF79FFF4CB1D4E9011055
:105A3000884205D2A1682068405C7D2800D15DE0E5
:105A40001CB1D4E90110884203D3A068401EA060B5
:105A500063E0A068401EA06000BF04F11000FFF7E3
:105A6000A9FA074607B958E016B93E463D4602E096
:105A70002F607D603D46A068401CA0602046FFF777
:105A800073FF21462846FFF7D9FD00B945E02046BF
:105A9000FFF76AFF286928620020286144B1D4E931
:105AA0000110884204D2A1682068405C3A2800D0E6
:105AB00033E0A068401CA0602046FFF755FF214658
:105AC000284600F0B5F800B927E02046FFF74CFF64
:105AD00044B1D4E90110884204D2A1682068405C36
